:1000000012C01FC01EC01DC01CC01BC01AC0C3C16F
:1000100005C217C016C015C014C013C012C011C04D
:1000200010C00FC00EC011241FBECFEDCDBF20E009
:10003000A0E6B0E001C01D92A937B207E1F74FD1A9
:1000400095C2DECF08B604FEFDCF98B7906198BF89
:100050009AB39C6D9ABB08B604FEFDCF98B7906129
:1000600098BFD19A482F41704E5A20E030E050E0BE
:10007000CA01022E02C0880F991F0A94E2F787FF77
:1000800004C08AB383728ABB03C08AB38C6D8ABBF7
:1000900008B604FEFDCF88B7806188BFD19808B646
:1000A00004FEFDCF88B7806188BFD19A2F5F3F4F94
:1000B00028303105E9F68AB383728ABB08B604FE9C
:1000C000FDCF88B7806188BFD19808B604FEFDCF08
:1000D00088B7806188BFD19A089520E030E0482F2A
:1000E00050E0CA01022E02C0880F991F0A94E2F75D
:1000F00087FF04C08AB383728ABB03C08AB38C6D46
:100100008ABB08B604FEFDCF88B7806188BFD1984E
:1001100008B604FEFDCF88B7806188BFD19A2F5FF3
:100120003F4F28303105E9F68AB383728ABB08B69F
:1001300004FEFDCF88B7806188BFD19808B604FE61
:10014000FDCF88B7806188BFD19A0895CF92DF92A2
:10015000EF92FF920F931F93CF93DF939AB3937213
:100160009ABB482F50E0FA01E859FF4F1082BA01BC
:100170006F5F7F4FFB01E859FF4F1082EA01229623
:10018000FE01E859FF4F1082DA011396FD01E8598C
:10019000FF4F10828A010C5F1F4F980128593F4F73
:1001A000F901108220E030E0FA01E859FF4F7F01A9
:1001B00040E850E068597F4FC859DF4FA859BF4FFA
:1001C000F801E859FF4F6F0108B604FEFDCF98B75C
:1001D000906198BFD198CF9B0BC0F70190818A01A5
:1001E000022E02C0159507950A94E2F7092B0083A9
:1001F000CA9B0BC0FB0190818A01022E02C015959B
:1002000007950A94E2F7092B0083CB9B0AC09881DB
:100210008A01022E02C0159507950A94E2F7092B70
:100220000883CC9B0AC09C918A01022E02C01595BE
:1002300007950A94E2F7092B0C93CE9B0BC0F601AD
:1002400090818A01022E02C0159507950A94E2F763
:10025000092B008308B604FEFDCF98B7906198BFC4
:10026000D19A2F5F3F4F2830310509F0ADCF811172
:1002700003C08AB38C6D8ABB08B604FEFDCF88B775
:10028000806188BFD19808B604FEFDCF88B7806131
:1002900088BFD19A8AB383728ABB80E0DF91CF9105
:1002A0001F910F91FF90EF90DF90CF9008958AB348
:1002B0008C6D8ABB08B604FEFDCF88B7806188BF0D
:1002C000D19808B604FEFDCF88B7806188BF8AB395
:1002D00083728ABB089580E008958AE0089584E1DE
:1002E00083BB81E085BB83BF1CBC9FEF9ABD9BBDD8
:1002F00080BF8FBD8DE187BD88E287BB6DE671E071
:100300008BE691E034D03CD0789480E09BDE80E8AE
:10031000E4DE81E0E2DECBDF8FE19EE40197F1F7DE
:1003200000C0000080E08EDE80E8D7DE83E0D5DE0E
:10033000BEDF9DE09A95F1F7000080E083DE84EB5C
:10034000CCDEB5DF2DE02A95F1F7000081E07ADE02
:1003500080E0FCDE85E0FADEAADF8FEF90E722E0A6
:10036000815090402040E1F700C00000E6CF70933C
:100370006300609362009093610080936000089531
:1003800087B3856087BBC29AC09AB89888EA8DB94E
:1003900080EF8EB908951F920F920FB60F9211241D
:1003A0002F933F934F935F936F937F938F939F937D
:1003B000AF93BF93EF93FF9310926700B898E091CB
:1003C0006000F0916100309739F0809166008823D9
:1003D00019F009958093640010926600B29B02C0E8
:1003E000B09BFCCFB09903C088EF8DB904C01092C8
:1003F000650088EA8DB980EF8EB9FF91EF91BF91CA
:10040000AF919F918F917F916F915F914F913F91AC
:100410002F910F900FBE0F901F9018951F920F9263
:100420000FB60F9211242F933F934F935F936F93C7
:100430007F938F939F93AF93BF93EF93FF9380919D
:100440006700823009F459C028F4882359F08130BC
:10045000C1F17BC0843009F458C058F1853009F4EB
:100460005BC073C08FB1882321F08FB1869588312E
:10047000D9F4789B11C081E080936700809164007B
:10048000811107C0E0916200F091630009958093AB
:1004900064001092650003C084E0809367001FB879
:1004A000B89A8EE78EB951C088EA8DB980E78EB9C7
:1004B0004CC08FB1882329F088EA8DB980E78EB9C6
:1004C00044C0E091650080916400E81788F4F0E092
:1004D000E859FF4F80818FB9809165008F5F8093CD
:1004E000650082E080936700B89A80E78EB92DC0DE
:1004F00088EA8DB980E78EB928C083E080936700D1
:10050000B8981FB88EE78EB920C085E08093670049
:10051000B89880E78EB919C0809166009FB1E82F26
:10052000F0E0E858FF4F90838F5F80936600813042
:1005300029F488EA8DB980E78EB907C084E08093FA
:1005400067001FB8B89A8EE78EB9FF91EF91BF91FF
:10055000AF919F918F917F916F915F914F913F915B
:100560002F910F900FBE0F901F901895F894FFCF0A
:00000001FF
