S016000053656E736F72626F6172645F76322E7372656385
S113000020C02DC02CC02BC02AC029C028C07AC152
S113001096C125C024C023C022C021C020C01FC057
S11300201EC01DC01CC0D5C13FC23EC2D5C1D4C173
S1130030D3C1D2C1D1C1F9C1F8C1F7C1F6C11FC240
S11300402CC211241FBECFEDCDBF20E0A0E6B0E04E
S113005001C01D92A93BB207E1F7BCD08AC2D0CF40
S113006008B604FEFDCF88B7806188BF0895CF939A
S1130070DF93C82FF5DF8AB38C6D8ABBF1DFD19A89
S1130080C170CE5AD8E08AB3C7FF02C0837201C0E0
S11300908C6D8ABBE5DFD198E3DFD19ACC0FD150C8
S11300A091F78AB383728ABBDBDFD198D9DFD19A07
S11300B0DF91CF9108951F93CF93DF931F92CDB714
S11300C0DD2718E09AB387FF02C0937201C09C6DCC
S11300D09ABB8983C5DFD198C3DFD19A8981880F00
S11300E0115081F78AB383728ABBBADFD198B8DF23
S11300F0D19A0F90DF91CF911F9108950F931F9381
S1130100CF93DF93EC01062F8AB383728ABB18E086
S11301108881880F88838981880F89838A81880FE1
S11301208A838B81880F8B838C81880F8C8398DFE3
S1130130D198CF9B03C0888181608883CA9B03C008
S1130140898181608983CB9B03C08A8181608A8392
S1130150CC9B03C08B8181608B83CE9B03C08C813D
S113016081608C837DDFD19A115091F6011103C017
S11301708AB38C6D8ABB74DFD19872DFD19A8AB34B
S113018083728ABBDF91CF911F910F9108958AB337
S11301908C6D8ABB65DFD19863DF8AB383728ABBB7
S11301A0089595E896B98F71806287B9369A369921
S11301B0FECF24E080E090E0369A3699FECF35B148
S11301C0830F911D2150C1F7379896958795969581
S11301D087950895CF93DF93CDB7DD27C550CDBF65
S11301E084E183BB81E085BB83BF1CBC9FEF9ABDC8
S11301F09BBD80BF8FBD8DE187BD88E287BB87B380
S1130200856087BBC29AC09AB89888EA8DB980EF96
S11302108EB980E02CDF82E94EDFB9DF81E027DF91
S113022061E0CE0101966ADFB2DF8B8180936600C4
S113023080E01DDF80E83FDF81E03DDFA8DF8FE164
S11302409EE40197F1F700C0000080E010DF80E831
S113025032DF83E030DF9BDF10916500112351F022
S113026080E005DF8FE827DF812F837024DF8FDFB5
S11302701092650080E0FBDE84EB1DDF88DF81E007
S1130280F6DE8091B80090E068E270E061D18C0104
S113029008591F4F60E0C80131DF60E0C8010596CE
S11302A02DDF60E0C8010A9629DF60E0C8010F96DF
S11302B025DF60E0C801449621DF60E0C80149966B
S11302C01DDF60E0C8014E9619DF61E0C801839626
S11302D015DF5DDF80E065DF8093640084E061DF2B
S11302E080936300F89480916700882319F07894D0
S11302F00000F8CF8091B80091E089278093B8007E
S11303007894AACF1F920F920FB60F9211248F9355
S113031010926200B898B29B02C0B09BFCCFB09917
S113032002C088EF03C01092610088EA8DB980EFA3
S11303308EB98F910F900FBE0F901F9018951F923A
S11303400F920FB60F9211242F933F934F935F9305
S11303506F937F938F939F93EF93FF9380916200AA
S1130360823009F4ADC028F4882359F0813011F1AA
S1130370E0C0843009F4AAC0A8F0853009F4ACC008
S1130380D8C08FB1882321F08FB18695883179F454
S1130390789B02C081E001C084E0809362001092E7
S11303A06100C3C08FB1882329F01092670088EAE6
S11303B08DB990C0E09160004E2F50E04255510934
S11303C04E30510508F070C04D5E5F4F4F935F9300
S11303D008958091660067C080916100811104C016
S11303E091E09093670002C08830C8F44091B8004F
S11303F091E0492790E065E070E0AAD09C01842F49
S113040090E068E270E0A4D0280F391F28593F4FCC
S11304102E0F311DF901E555F10980818FB98091C5
S11304206100873009F040C027C02091610021118C
S113043004C081E08093670002C02A30C8F48E2F84
S113044090E03091B80041E034278A5591096AE080
S113045070E07ED0FC01832F90E068E270E078D0F9
S1130460E80FF91FE859FF4FE20FF11D80818FB9A2
S1130470809161008930C1F41092670015C08091A9
S11304806100811103C0809164008FB98091610083
S1130490813051F48091630006C080916100811124
S11304A003C089B381728FB9809161008F3F19F0C5
S11304B08F5F8093610082E080936200B89A0AC0E3
S11304C083E080936200B8981FB831C085E08093C0
S11304D06200B89880E72CC080916100811103C04C
S11304E09FB19093600090916000933519F094351A
S11304F061F011C0813021F48FB180958ABD0BC0A9
S1130500823049F48FB18CBD06C0813021F48FB1A3
S1130510806880936500809161008F3F19F08F5F40
S11305208093610084E0809362001FB8B89A8EE7DC
S11305308EB9FF91EF919F918F917F916F915F9110
S11305404F913F912F910F900FBE0F901F901895D0
S11305500024552704C0080E591F880F991F0097BF
S113056029F076956795B8F37105B9F7802D952F25
S10905700895F894FFCF8A
S9030000FC
